{
	"contracts/MathOperation.sol": {
		"MathOperation": {
			"abi": [
				{
					"inputs": [],
					"stateMutability": "nonpayable",
					"type": "constructor"
				},
				{
					"inputs": [],
					"name": "balance",
					"outputs": [
						{
							"internalType": "uint8",
							"name": "",
							"type": "uint8"
						}
					],
					"stateMutability": "view",
					"type": "function"
				},
				{
					"inputs": [],
					"name": "decrease",
					"outputs": [],
					"stateMutability": "nonpayable",
					"type": "function"
				},
				{
					"inputs": [],
					"name": "increase",
					"outputs": [],
					"stateMutability": "nonpayable",
					"type": "function"
				}
			],
			"devdoc": {
				"kind": "dev",
				"methods": {},
				"version": 1
			},
			"evm": {
				"assembly": "    /* \"contracts/MathOperation.sol\":61:325  contract MathOperation {... */\n  mstore(0x40, 0x80)\n    /* \"contracts/MathOperation.sol\":126:158  constructor() {... */\n  callvalue\n  dup1\n  iszero\n  tag_1\n  jumpi\n  revert(0x00, 0x00)\ntag_1:\n  pop\n    /* \"contracts/MathOperation.sol\":61:325  contract MathOperation {... */\n  dataSize(sub_0)\n  dup1\n  dataOffset(sub_0)\n  0x00\n  codecopy\n  0x00\n  return\nstop\n\nsub_0: assembly {\n        /* \"contracts/MathOperation.sol\":61:325  contract MathOperation {... */\n      mstore(0x40, 0x80)\n      callvalue\n      dup1\n      iszero\n      tag_1\n      jumpi\n      revert(0x00, 0x00)\n    tag_1:\n      pop\n      jumpi(tag_2, lt(calldatasize, 0x04))\n      shr(0xe0, calldataload(0x00))\n      dup1\n      0xb69ef8a8\n      eq\n      tag_3\n      jumpi\n      dup1\n      0xd732d955\n      eq\n      tag_4\n      jumpi\n      dup1\n      0xe8927fbc\n      eq\n      tag_5\n      jumpi\n    tag_2:\n      revert(0x00, 0x00)\n        /* \"contracts/MathOperation.sol\":97:117  uint8 public balance */\n    tag_3:\n      tag_6\n      tag_7\n      jump\t// in\n    tag_6:\n      mload(0x40)\n      tag_8\n      swap2\n      swap1\n      tag_9\n      jump\t// in\n    tag_8:\n      mload(0x40)\n      dup1\n      swap2\n      sub\n      swap1\n      return\n        /* \"contracts/MathOperation.sol\":172:240  function decrease() public {... */\n    tag_4:\n      tag_10\n      tag_11\n      jump\t// in\n    tag_10:\n      stop\n        /* \"contracts/MathOperation.sol\":254:322  function increase() public {... */\n    tag_5:\n      tag_12\n      tag_13\n      jump\t// in\n    tag_12:\n      stop\n        /* \"contracts/MathOperation.sol\":97:117  uint8 public balance */\n    tag_7:\n      0x00\n      0x00\n      swap1\n      sload\n      swap1\n      0x0100\n      exp\n      swap1\n      div\n      0xff\n      and\n      dup2\n      jump\t// out\n        /* \"contracts/MathOperation.sol\":172:240  function decrease() public {... */\n    tag_11:\n        /* \"contracts/MathOperation.sol\":230:231  1 */\n      0x01\n        /* \"contracts/MathOperation.sol\":220:227  balance */\n      0x00\n      0x00\n      swap1\n      sload\n      swap1\n      0x0100\n      exp\n      swap1\n      div\n      0xff\n      and\n        /* \"contracts/MathOperation.sol\":220:231  balance - 1 */\n      tag_15\n      swap2\n      swap1\n      tag_16\n      jump\t// in\n    tag_15:\n        /* \"contracts/MathOperation.sol\":210:217  balance */\n      0x00\n      0x00\n        /* \"contracts/MathOperation.sol\":210:231  balance = balance - 1 */\n      0x0100\n      exp\n      dup2\n      sload\n      dup2\n      0xff\n      mul\n      not\n      and\n      swap1\n      dup4\n      0xff\n      and\n      mul\n      or\n      swap1\n      sstore\n      pop\n        /* \"contracts/MathOperation.sol\":172:240  function decrease() public {... */\n      jump\t// out\n        /* \"contracts/MathOperation.sol\":254:322  function increase() public {... */\n    tag_13:\n        /* \"contracts/MathOperation.sol\":312:313  1 */\n      0x01\n        /* \"contracts/MathOperation.sol\":302:309  balance */\n      0x00\n      0x00\n      swap1\n      sload\n      swap1\n      0x0100\n      exp\n      swap1\n      div\n      0xff\n      and\n        /* \"contracts/MathOperation.sol\":302:313  balance + 1 */\n      tag_18\n      swap2\n      swap1\n      tag_19\n      jump\t// in\n    tag_18:\n        /* \"contracts/MathOperation.sol\":292:299  balance */\n      0x00\n      0x00\n        /* \"contracts/MathOperation.sol\":292:313  balance = balance + 1 */\n      0x0100\n      exp\n      dup2\n      sload\n      dup2\n      0xff\n      mul\n      not\n      and\n      swap1\n      dup4\n      0xff\n      and\n      mul\n      or\n      swap1\n      sstore\n      pop\n        /* \"contracts/MathOperation.sol\":254:322  function increase() public {... */\n      jump\t// out\n        /* \"#utility.yul\":7:93   */\n    tag_20:\n        /* \"#utility.yul\":42:49   */\n      0x00\n        /* \"#utility.yul\":82:86   */\n      0xff\n        /* \"#utility.yul\":75:80   */\n      dup3\n        /* \"#utility.yul\":71:87   */\n      and\n        /* \"#utility.yul\":60:87   */\n      swap1\n      pop\n        /* \"#utility.yul\":7:93   */\n      swap2\n      swap1\n      pop\n      jump\t// out\n        /* \"#utility.yul\":99:211   */\n    tag_21:\n        /* \"#utility.yul\":182:204   */\n      tag_26\n        /* \"#utility.yul\":198:203   */\n      dup2\n        /* \"#utility.yul\":182:204   */\n      tag_20\n      jump\t// in\n    tag_26:\n        /* \"#utility.yul\":177:180   */\n      dup3\n        /* \"#utility.yul\":170:205   */\n      mstore\n        /* \"#utility.yul\":99:211   */\n      pop\n      pop\n      jump\t// out\n        /* \"#utility.yul\":217:431   */\n    tag_9:\n        /* \"#utility.yul\":306:310   */\n      0x00\n        /* \"#utility.yul\":344:346   */\n      0x20\n        /* \"#utility.yul\":333:342   */\n      dup3\n        /* \"#utility.yul\":329:347   */\n      add\n        /* \"#utility.yul\":321:347   */\n      swap1\n      pop\n        /* \"#utility.yul\":357:424   */\n      tag_28\n        /* \"#utility.yul\":421:422   */\n      0x00\n        /* \"#utility.yul\":410:419   */\n      dup4\n        /* \"#utility.yul\":406:423   */\n      add\n        /* \"#utility.yul\":397:403   */\n      dup5\n        /* \"#utility.yul\":357:424   */\n      tag_21\n      jump\t// in\n    tag_28:\n        /* \"#utility.yul\":217:431   */\n      swap3\n      swap2\n      pop\n      pop\n      jump\t// out\n        /* \"#utility.yul\":437:617   */\n    tag_22:\n        /* \"#utility.yul\":485:562   */\n      0x4e487b7100000000000000000000000000000000000000000000000000000000\n        /* \"#utility.yul\":482:483   */\n      0x00\n        /* \"#utility.yul\":475:563   */\n      mstore\n        /* \"#utility.yul\":582:586   */\n      0x11\n        /* \"#utility.yul\":579:580   */\n      0x04\n        /* \"#utility.yul\":572:587   */\n      mstore\n        /* \"#utility.yul\":606:610   */\n      0x24\n        /* \"#utility.yul\":603:604   */\n      0x00\n        /* \"#utility.yul\":596:611   */\n      revert\n        /* \"#utility.yul\":623:814   */\n    tag_16:\n        /* \"#utility.yul\":661:665   */\n      0x00\n        /* \"#utility.yul\":681:699   */\n      tag_31\n        /* \"#utility.yul\":697:698   */\n      dup3\n        /* \"#utility.yul\":681:699   */\n      tag_20\n      jump\t// in\n    tag_31:\n        /* \"#utility.yul\":676:699   */\n      swap2\n      pop\n        /* \"#utility.yul\":713:731   */\n      tag_32\n        /* \"#utility.yul\":729:730   */\n      dup4\n        /* \"#utility.yul\":713:731   */\n      tag_20\n      jump\t// in\n    tag_32:\n        /* \"#utility.yul\":708:731   */\n      swap3\n      pop\n        /* \"#utility.yul\":755:756   */\n      dup3\n        /* \"#utility.yul\":752:753   */\n      dup3\n        /* \"#utility.yul\":748:757   */\n      sub\n        /* \"#utility.yul\":740:757   */\n      swap1\n      pop\n        /* \"#utility.yul\":779:783   */\n      0xff\n        /* \"#utility.yul\":773:777   */\n      dup2\n        /* \"#utility.yul\":770:784   */\n      gt\n        /* \"#utility.yul\":767:807   */\n      iszero\n      tag_33\n      jumpi\n        /* \"#utility.yul\":787:805   */\n      tag_34\n      tag_22\n      jump\t// in\n    tag_34:\n        /* \"#utility.yul\":767:807   */\n    tag_33:\n        /* \"#utility.yul\":623:814   */\n      swap3\n      swap2\n      pop\n      pop\n      jump\t// out\n        /* \"#utility.yul\":820:1008   */\n    tag_19:\n        /* \"#utility.yul\":858:861   */\n      0x00\n        /* \"#utility.yul\":877:895   */\n      tag_36\n        /* \"#utility.yul\":893:894   */\n      dup3\n        /* \"#utility.yul\":877:895   */\n      tag_20\n      jump\t// in\n    tag_36:\n        /* \"#utility.yul\":872:895   */\n      swap2\n      pop\n        /* \"#utility.yul\":909:927   */\n      tag_37\n        /* \"#utility.yul\":925:926   */\n      dup4\n        /* \"#utility.yul\":909:927   */\n      tag_20\n      jump\t// in\n    tag_37:\n        /* \"#utility.yul\":904:927   */\n      swap3\n      pop\n        /* \"#utility.yul\":950:951   */\n      dup3\n        /* \"#utility.yul\":947:948   */\n      dup3\n        /* \"#utility.yul\":943:952   */\n      add\n        /* \"#utility.yul\":936:952   */\n      swap1\n      pop\n        /* \"#utility.yul\":973:977   */\n      0xff\n        /* \"#utility.yul\":968:971   */\n      dup2\n        /* \"#utility.yul\":965:978   */\n      gt\n        /* \"#utility.yul\":962:1001   */\n      iszero\n      tag_38\n      jumpi\n        /* \"#utility.yul\":981:999   */\n      tag_39\n      tag_22\n      jump\t// in\n    tag_39:\n        /* \"#utility.yul\":962:1001   */\n    tag_38:\n        /* \"#utility.yul\":820:1008   */\n      swap3\n      swap2\n      pop\n      pop\n      jump\t// out\n\n    auxdata: 0xa26469706673582212209d44e504dcaf124b5f2b0eced6cdf6a7d75f84a469d9c61a4fc45c453b7cbd8264736f6c63430008220033\n}\n",
				"bytecode": {
					"linkReferences": {},
					"object": "6080604052348015600e575f5ffd5b506101ed8061001c5f395ff3fe608060405234801561000f575f5ffd5b506004361061003f575f3560e01c8063b69ef8a814610043578063d732d95514610061578063e8927fbc1461006b575b5f5ffd5b61004b610075565b6040516100589190610109565b60405180910390f35b610069610086565b005b6100736100ba565b005b5f5f9054906101000a900460ff1681565b60015f5f9054906101000a900460ff166100a0919061014f565b5f5f6101000a81548160ff021916908360ff160217905550565b60015f5f9054906101000a900460ff166100d49190610183565b5f5f6101000a81548160ff021916908360ff160217905550565b5f60ff82169050919050565b610103816100ee565b82525050565b5f60208201905061011c5f8301846100fa565b92915050565b7f4e487b71000000000000000000000000000000000000000000000000000000005f52601160045260245ffd5b5f610159826100ee565b9150610164836100ee565b9250828203905060ff81111561017d5761017c610122565b5b92915050565b5f61018d826100ee565b9150610198836100ee565b9250828201905060ff8111156101b1576101b0610122565b5b9291505056fea26469706673582212209d44e504dcaf124b5f2b0eced6cdf6a7d75f84a469d9c61a4fc45c453b7cbd8264736f6c63430008220033",
					"opcodes": "PUSH1 0x80 PUSH1 0x40 MSTORE CALLVALUE DUP1 ISZERO PUSH1 0xE JUMPI PUSH0 PUSH0 REVERT JUMPDEST POP PUSH2 0x1ED DUP1 PUSH2 0x1C PUSH0 CODECOPY PUSH0 RETURN INVALID PUSH1 0x80 PUSH1 0x40 MSTORE CALLVALUE DUP1 ISZERO PUSH2 0xF JUMPI PUSH0 PUSH0 REVERT JUMPDEST POP PUSH1 0x4 CALLDATASIZE LT PUSH2 0x3F JUMPI PUSH0 CALLDATALOAD PUSH1 0xE0 SHR DUP1 PUSH4 0xB69EF8A8 EQ PUSH2 0x43 JUMPI DUP1 PUSH4 0xD732D955 EQ PUSH2 0x61 JUMPI DUP1 PUSH4 0xE8927FBC EQ PUSH2 0x6B JUMPI JUMPDEST PUSH0 PUSH0 REVERT JUMPDEST PUSH2 0x4B PUSH2 0x75 JUMP JUMPDEST PUSH1 0x40 MLOAD PUSH2 0x58 SWAP2 SWAP1 PUSH2 0x109 JUMP JUMPDEST PUSH1 0x40 MLOAD DUP1 SWAP2 SUB SWAP1 RETURN JUMPDEST PUSH2 0x69 PUSH2 0x86 JUMP JUMPDEST STOP JUMPDEST PUSH2 0x73 PUSH2 0xBA JUMP JUMPDEST STOP JUMPDEST PUSH0 PUSH0 SWAP1 SLOAD SWAP1 PUSH2 0x100 EXP SWAP1 DIV PUSH1 0xFF AND DUP2 JUMP JUMPDEST PUSH1 0x1 PUSH0 PUSH0 SWAP1 SLOAD SWAP1 PUSH2 0x100 EXP SWAP1 DIV PUSH1 0xFF AND PUSH2 0xA0 SWAP2 SWAP1 PUSH2 0x14F JUMP JUMPDEST PUSH0 PUSH0 PUSH2 0x100 EXP DUP2 SLOAD DUP2 PUSH1 0xFF MUL NOT AND SWAP1 DUP4 PUSH1 0xFF AND MUL OR SWAP1 SSTORE POP JUMP JUMPDEST PUSH1 0x1 PUSH0 PUSH0 SWAP1 SLOAD SWAP1 PUSH2 0x100 EXP SWAP1 DIV PUSH1 0xFF AND PUSH2 0xD4 SWAP2 SWAP1 PUSH2 0x183 JUMP JUMPDEST PUSH0 PUSH0 PUSH2 0x100 EXP DUP2 SLOAD DUP2 PUSH1 0xFF MUL NOT AND SWAP1 DUP4 PUSH1 0xFF AND MUL OR SWAP1 SSTORE POP JUMP JUMPDEST PUSH0 PUSH1 0xFF DUP3 AND SWAP1 POP SWAP2 SWAP1 POP JUMP JUMPDEST PUSH2 0x103 DUP2 PUSH2 0xEE JUMP JUMPDEST DUP3 MSTORE POP POP JUMP JUMPDEST PUSH0 PUSH1 0x20 DUP3 ADD SWAP1 POP PUSH2 0x11C PUSH0 DUP4 ADD DUP5 PUSH2 0xFA JUMP JUMPDEST SWAP3 SWAP2 POP POP JUMP JUMPDEST PUSH32 0x4E487B7100000000000000000000000000000000000000000000000000000000 PUSH0 MSTORE PUSH1 0x11 PUSH1 0x4 MSTORE PUSH1 0x24 PUSH0 REVERT JUMPDEST PUSH0 PUSH2 0x159 DUP3 PUSH2 0xEE JUMP JUMPDEST SWAP2 POP PUSH2 0x164 DUP4 PUSH2 0xEE JUMP JUMPDEST SWAP3 POP DUP3 DUP3 SUB SWAP1 POP PUSH1 0xFF DUP2 GT ISZERO PUSH2 0x17D JUMPI PUSH2 0x17C PUSH2 0x122 JUMP JUMPDEST JUMPDEST SWAP3 SWAP2 POP POP JUMP JUMPDEST PUSH0 PUSH2 0x18D DUP3 PUSH2 0xEE JUMP JUMPDEST SWAP2 POP PUSH2 0x198 DUP4 PUSH2 0xEE JUMP JUMPDEST SWAP3 POP DUP3 DUP3 ADD SWAP1 POP PUSH1 0xFF DUP2 GT ISZERO PUSH2 0x1B1 JUMPI PUSH2 0x1B0 PUSH2 0x122 JUMP JUMPDEST JUMPDEST SWAP3 SWAP2 POP POP JUMP INVALID LOG2 PUSH5 0x6970667358 0x22 SLT KECCAK256 SWAP14 PREVRANDAO JUMPF 0x4DC 0xAF SLT 0x4B PUSH0 0x2B 0xE 0xCE 0xD6 0xCD 0xF6 0xA7 0xD7 PUSH0 DUP5 LOG4 PUSH10 0xD9C61A4FC45C453B7CBD DUP3 PUSH5 0x736F6C6343 STOP ADDMOD 0x22 STOP CALLER "
				},
				"gasEstimates": {
					"creation": {
						"codeDepositCost": "98600",
						"executionCost": "145",
						"totalCost": "98745"
					},
					"external": {
						"balance()": "2443",
						"decrease()": "infinite",
						"increase()": "infinite"
					}
				},
				"methodIdentifiers": {
					"balance()": "b69ef8a8",
					"decrease()": "d732d955",
					"increase()": "e8927fbc"
				}
			},
			"storageLayout": {
				"storage": [
					{
						"astId": 3,
						"contract": "contracts/MathOperation.sol:MathOperation",
						"label": "balance",
						"offset": 0,
						"slot": "0",
						"type": "t_uint8"
					}
				],
				"types": {
					"t_uint8": {
						"encoding": "inplace",
						"label": "uint8",
						"numberOfBytes": "1"
					}
				}
			},
			"userdoc": {
				"kind": "user",
				"methods": {},
				"version": 1
			}
		}
	}
}